{
  "contractName": "DrugContract",
  "abi": [
    {
      "inputs": [],
      "stateMutability": "nonpayable",
      "type": "constructor"
    },
    {
      "anonymous": false,
      "inputs": [
        {
          "indexed": false,
          "internalType": "uint256",
          "name": "batchId",
          "type": "uint256"
        },
        {
          "indexed": false,
          "internalType": "string",
          "name": "name",
          "type": "string"
        },
        {
          "indexed": false,
          "internalType": "string",
          "name": "manufacturer",
          "type": "string"
        },
        {
          "indexed": false,
          "internalType": "address",
          "name": "owner",
          "type": "address"
        }
      ],
      "name": "DrugCreated",
      "type": "event"
    },
    {
      "anonymous": false,
      "inputs": [
        {
          "indexed": false,
          "internalType": "uint256",
          "name": "batchId",
          "type": "uint256"
        },
        {
          "indexed": false,
          "internalType": "address",
          "name": "oldOwner",
          "type": "address"
        },
        {
          "indexed": false,
          "internalType": "address",
          "name": "newOwner",
          "type": "address"
        }
      ],
      "name": "DrugOwnershipTransferred",
      "type": "event"
    },
    {
      "inputs": [],
      "name": "drugCount",
      "outputs": [
        {
          "internalType": "uint256",
          "name": "",
          "type": "uint256"
        }
      ],
      "stateMutability": "view",
      "type": "function",
      "constant": true
    },
    {
      "inputs": [
        {
          "internalType": "uint256",
          "name": "",
          "type": "uint256"
        }
      ],
      "name": "drugs",
      "outputs": [
        {
          "internalType": "uint256",
          "name": "batchId",
          "type": "uint256"
        },
        {
          "internalType": "string",
          "name": "name",
          "type": "string"
        },
        {
          "internalType": "string",
          "name": "manufacturer",
          "type": "string"
        },
        {
          "internalType": "uint256",
          "name": "creationDate",
          "type": "uint256"
        },
        {
          "internalType": "string",
          "name": "expiryDate",
          "type": "string"
        },
        {
          "internalType": "address",
          "name": "owner",
          "type": "address"
        }
      ],
      "stateMutability": "view",
      "type": "function",
      "constant": true
    },
    {
      "inputs": [
        {
          "internalType": "uint256",
          "name": "_batchId",
          "type": "uint256"
        },
        {
          "internalType": "string",
          "name": "_name",
          "type": "string"
        },
        {
          "internalType": "string",
          "name": "_manufacturer",
          "type": "string"
        },
        {
          "internalType": "uint256",
          "name": "_creationDate",
          "type": "uint256"
        },
        {
          "internalType": "string",
          "name": "_expiryDate",
          "type": "string"
        }
      ],
      "name": "createDrug",
      "outputs": [],
      "stateMutability": "nonpayable",
      "type": "function"
    },
    {
      "inputs": [
        {
          "internalType": "uint256",
          "name": "_batchId",
          "type": "uint256"
        },
        {
          "internalType": "address",
          "name": "_newOwner",
          "type": "address"
        }
      ],
      "name": "transferOwnership",
      "outputs": [],
      "stateMutability": "nonpayable",
      "type": "function"
    },
    {
      "inputs": [
        {
          "internalType": "uint256",
          "name": "_batchId",
          "type": "uint256"
        }
      ],
      "name": "getDrug",
      "outputs": [
        {
          "internalType": "uint256",
          "name": "",
          "type": "uint256"
        },
        {
          "internalType": "string",
          "name": "",
          "type": "string"
        },
        {
          "internalType": "string",
          "name": "",
          "type": "string"
        },
        {
          "internalType": "uint256",
          "name": "",
          "type": "uint256"
        },
        {
          "internalType": "string",
          "name": "",
          "type": "string"
        },
        {
          "internalType": "address",
          "name": "",
          "type": "address"
        }
      ],
      "stateMutability": "view",
      "type": "function",
      "constant": true
    }
  ],
  "bytecode": "0x608060405234801561001057600080fd5b506000600155610baf806100256000396000f3fe608060405234801561001057600080fd5b50600436106100575760003560e01c806329507f731461005c5780637577ca3714610071578063b8840d3d1461008f578063f37bc724146100b4578063fca5e61e146100c7575b600080fd5b61006f61006a36600461083a565b6100da565b005b610079610186565b6040516100869190610a33565b60405180910390f35b6100a261009d366004610822565b61018c565b60405161008696959493929190610aa0565b61006f6100c2366004610874565b6103e5565b6100a26100d5366004610822565b610532565b6000828152602081905260409020600501546001600160a01b0316331461011c5760405162461bcd60e51b81526004016101139061099e565b60405180910390fd5b6000828152602081905260409081902060050180546001600160a01b0319166001600160a01b038416179055517f5f192fe2d49193b95f3ccf95d16129c0bf5482d03fec80f41fd023957b9eacdb9061017a90849033908590610a3c565b60405180910390a15050565b60015481565b6000606080600060606000806000808981526020019081526020016000206040518060c0016040529081600082015481526020016001820180546101cf90610b01565b80601f01602080910402602001604051908101604052809291908181526020018280546101fb90610b01565b80156102485780601f1061021d57610100808354040283529160200191610248565b820191906000526020600020905b81548152906001019060200180831161022b57829003601f168201915b5050505050815260200160028201805461026190610b01565b80601f016020809104026020016040519081016040528092919081815260200182805461028d90610b01565b80156102da5780601f106102af576101008083540402835291602001916102da565b820191906000526020600020905b8154815290600101906020018083116102bd57829003601f168201915b50505050508152602001600382015481526020016004820180546102fd90610b01565b80601f016020809104026020016040519081016040528092919081815260200182805461032990610b01565b80156103765780601f1061034b57610100808354040283529160200191610376565b820191906000526020600020905b81548152906001019060200180831161035957829003601f168201915b5050509183525050600591909101546001600160a01b031660209091015280519091506103b55760405162461bcd60e51b8152600401610113906109ec565b8051602082015160408301516060840151608085015160a090950151939c929b5090995097509195509350915050565b600085815260208190526040902054156104115760405162461bcd60e51b815260040161011390610957565b6001805490600061042183610b3c565b90915550506040805160c081018252868152602080820187815282840187905260608301869052608083018590523360a08401526000898152808352939093208251815592518051929384939092610480926001850192910190610708565b506040820151805161049c916002840191602090910190610708565b5060608201516003820155608082015180516104c2916004840191602090910190610708565b5060a09190910151600590910180546001600160a01b0319166001600160a01b039092169190911790556040517f73868788262a35e357c063ef8f370db205efd7854cf25664fdb190da22e0b95c90610522908890889088903390610a5b565b60405180910390a1505050505050565b6000602081905290815260409020805460018201805491929161055490610b01565b80601f016020809104026020016040519081016040528092919081815260200182805461058090610b01565b80156105cd5780601f106105a2576101008083540402835291602001916105cd565b820191906000526020600020905b8154815290600101906020018083116105b057829003601f168201915b5050505050908060020180546105e290610b01565b80601f016020809104026020016040519081016040528092919081815260200182805461060e90610b01565b801561065b5780601f106106305761010080835404028352916020019161065b565b820191906000526020600020905b81548152906001019060200180831161063e57829003601f168201915b50505050509080600301549080600401805461067690610b01565b80601f01602080910402602001604051908101604052809291908181526020018280546106a290610b01565b80156106ef5780601f106106c4576101008083540402835291602001916106ef565b820191906000526020600020905b8154815290600101906020018083116106d257829003601f168201915b505050600590930154919250506001600160a01b031686565b82805461071490610b01565b90600052602060002090601f016020900481019282610736576000855561077c565b82601f1061074f57805160ff191683800117855561077c565b8280016001018555821561077c579182015b8281111561077c578251825591602001919060010190610761565b5061078892915061078c565b5090565b5b80821115610788576000815560010161078d565b600082601f8301126107b1578081fd5b813567ffffffffffffffff808211156107cc576107cc610b63565b604051601f8301601f1916810160200182811182821017156107f0576107f0610b63565b604052828152848301602001861015610807578384fd5b82602086016020830137918201602001929092529392505050565b600060208284031215610833578081fd5b5035919050565b6000806040838503121561084c578081fd5b8235915060208301356001600160a01b0381168114610869578182fd5b809150509250929050565b600080600080600060a0868803121561088b578081fd5b85359450602086013567ffffffffffffffff808211156108a9578283fd5b6108b589838a016107a1565b955060408801359150808211156108ca578283fd5b6108d689838a016107a1565b94506060880135935060808801359150808211156108f2578283fd5b506108ff888289016107a1565b9150509295509295909350565b60008151808452815b8181101561093157602081850181015186830182015201610915565b818111156109425782602083870101525b50601f01601f19169290920160200192915050565b60208082526027908201527f447275672077697468207468697320626174636820494420616c72656164792060408201526632bc34b9ba399760c91b606082015260800190565b6020808252602e908201527f4f6e6c79207468652063757272656e74206f776e65722063616e207472616e7360408201526d3332b91037bbb732b939b434b81760911b606082015260800190565b60208082526027908201527f447275672077697468207468697320626174636820494420646f6573206e6f746040820152661032bc34b9ba1760c91b606082015260800190565b90815260200190565b9283526001600160a01b03918216602084015216604082015260600190565b600085825260806020830152610a74608083018661090c565b8281036040840152610a86818661090c565b91505060018060a01b038316606083015295945050505050565b600087825260c06020830152610ab960c083018861090c565b8281036040840152610acb818861090c565b90508560608401528281036080840152610ae5818661090c565b91505060018060a01b03831660a0830152979650505050505050565b600281046001821680610b1557607f821691505b60208210811415610b3657634e487b7160e01b600052602260045260246000fd5b50919050565b6000600019821415610b5c57634e487b7160e01b81526011600452602481fd5b5060010190565b634e487b7160e01b600052604160045260246000fdfea2646970667358221220f6f838cf23f7f0c5d556bdac74de9b73a3c8b107bfd241340b92417df226b9be64736f6c63430008000033",
  "immutableReferences": {},
  "source": "// SPDX-License-Identifier: UNLICENSED\npragma solidity ^0.8.0;\n\ncontract DrugContract {\n    struct Drug {\n        uint256 batchId;\n        string name;\n        string manufacturer;\n        uint256 creationDate; // Unix timestamp\n        string expiryDate; // Expiry Date\n        address owner; // Track the current owner\n    }\n\n    mapping(uint256 => Drug) public drugs;\n    uint256 public drugCount;\n\n    event DrugCreated(uint256 batchId, string name, string manufacturer, address owner);\n    event DrugOwnershipTransferred(uint256 batchId, address oldOwner, address newOwner);\n\n    constructor() {\n        drugCount = 0;\n    }\n\n    function createDrug(\n        uint256 _batchId,\n        string memory _name,\n        string memory _manufacturer,\n        uint256 _creationDate,\n        string memory _expiryDate\n    ) public {\n        require(drugs[_batchId].batchId == 0, \"Drug with this batch ID already exists.\");\n        drugCount++; // Increment counter, can be used as internal ID if needed.\n\n        Drug memory newDrug = Drug({\n            batchId: _batchId,\n            name: _name,\n            manufacturer: _manufacturer,\n            creationDate: _creationDate,\n            expiryDate: _expiryDate,\n            owner: msg.sender\n        });\n\n        drugs[_batchId] = newDrug;\n\n        emit DrugCreated(_batchId, _name, _manufacturer, msg.sender);\n    }\n\n    function transferOwnership(uint256 _batchId, address _newOwner) public {\n        require(drugs[_batchId].owner == msg.sender, \"Only the current owner can transfer ownership.\");\n        drugs[_batchId].owner = _newOwner;\n        emit DrugOwnershipTransferred(_batchId, msg.sender, _newOwner);\n    }\n\n    function getDrug(uint256 _batchId) public view returns (uint256, string memory, string memory, uint256, string memory, address) {\n        Drug memory drug = drugs[_batchId];\n        require(drug.batchId != 0, \"Drug with this batch ID does not exist.\");\n        return (drug.batchId, drug.name, drug.manufacturer, drug.creationDate, drug.expiryDate, drug.owner);\n    }\n}",
  "sourcePath": "/Users/kushagraagarwal/Documents/Study_Material/last/contracts/DrugContract.sol",
  "compiler": {
    "name": "solc",
    "version": "0.8.0+commit.c7dfd78e.Emscripten.clang"
  },
  "schemaVersion": "3.4.16",
  "updatedAt": "2025-04-16T07:00:19.073Z",
  "networkType": "ethereum",
  "devdoc": {
    "kind": "dev",
    "methods": {},
    "version": 1
  },
  "userdoc": {
    "kind": "user",
    "methods": {},
    "version": 1
  }
}