{
  "contractName": "SupplyChainContract",
  "abi": [
    {
      "anonymous": false,
      "inputs": [
        {
          "indexed": false,
          "internalType": "uint256",
          "name": "batchId",
          "type": "uint256"
        },
        {
          "indexed": false,
          "internalType": "string",
          "name": "eventType",
          "type": "string"
        },
        {
          "indexed": false,
          "internalType": "address",
          "name": "actor",
          "type": "address"
        },
        {
          "indexed": false,
          "internalType": "uint256",
          "name": "timestamp",
          "type": "uint256"
        }
      ],
      "name": "SupplyChainEventAdded",
      "type": "event"
    },
    {
      "inputs": [
        {
          "internalType": "uint256",
          "name": "",
          "type": "uint256"
        },
        {
          "internalType": "uint256",
          "name": "",
          "type": "uint256"
        }
      ],
      "name": "supplyChainHistory",
      "outputs": [
        {
          "internalType": "uint256",
          "name": "batchId",
          "type": "uint256"
        },
        {
          "internalType": "string",
          "name": "eventType",
          "type": "string"
        },
        {
          "internalType": "address",
          "name": "actor",
          "type": "address"
        },
        {
          "internalType": "uint256",
          "name": "timestamp",
          "type": "uint256"
        }
      ],
      "stateMutability": "view",
      "type": "function",
      "constant": true
    },
    {
      "inputs": [
        {
          "internalType": "uint256",
          "name": "_batchId",
          "type": "uint256"
        },
        {
          "internalType": "string",
          "name": "_eventType",
          "type": "string"
        }
      ],
      "name": "addSupplyChainEvent",
      "outputs": [],
      "stateMutability": "nonpayable",
      "type": "function"
    },
    {
      "inputs": [
        {
          "internalType": "uint256",
          "name": "_batchId",
          "type": "uint256"
        }
      ],
      "name": "getSupplyChainHistory",
      "outputs": [
        {
          "components": [
            {
              "internalType": "uint256",
              "name": "batchId",
              "type": "uint256"
            },
            {
              "internalType": "string",
              "name": "eventType",
              "type": "string"
            },
            {
              "internalType": "address",
              "name": "actor",
              "type": "address"
            },
            {
              "internalType": "uint256",
              "name": "timestamp",
              "type": "uint256"
            }
          ],
          "internalType": "struct SupplyChainTypes.SupplyChainEvent[]",
          "name": "",
          "type": "tuple[]"
        }
      ],
      "stateMutability": "view",
      "type": "function",
      "constant": true
    }
  ],
  "bytecode": "0x608060405234801561001057600080fd5b50610698806100206000396000f3fe608060405234801561001057600080fd5b50600436106100415760003560e01c806324fbb05814610046578063d0870cc01461005b578063de0a5e9914610087575b600080fd5b610059610054366004610432565b6100a7565b005b61006e6100693660046104df565b61017a565b60405161007e94939291906105dc565b60405180910390f35b61009a61009536600461041a565b610259565b60405161007e919061054b565b6040805160808101825283815260208082018481523383850152426060840152600086815280835293842080546001818101835591865294839020845160049096020194855590518051939485949093610105938501920190610381565b506040828101516002830180546001600160a01b0319166001600160a01b03909216919091179055606090920151600390910155517fb942d3fc27ad6e4eca098d4547c217617e99ca4dbd629964d9a4195e84a338739061016d9085908590339042906105dc565b60405180910390a1505050565b6000602052816000526040600020818154811061019657600080fd5b9060005260206000209060040201600091509150508060000154908060010180546101c090610611565b80601f01602080910402602001604051908101604052809291908181526020018280546101ec90610611565b80156102395780601f1061020e57610100808354040283529160200191610239565b820191906000526020600020905b81548152906001019060200180831161021c57829003601f168201915b50505050600283015460039093015491926001600160a01b031691905084565b600081815260208181526040808320805482518185028101850190935280835260609492939192909184015b828210156103765783829060005260206000209060040201604051806080016040529081600082015481526020016001820180546102c290610611565b80601f01602080910402602001604051908101604052809291908181526020018280546102ee90610611565b801561033b5780601f106103105761010080835404028352916020019161033b565b820191906000526020600020905b81548152906001019060200180831161031e57829003601f168201915b505050918352505060028201546001600160a01b03166020808301919091526003909201546040909101529082526001929092019101610285565b505050509050919050565b82805461038d90610611565b90600052602060002090601f0160209004810192826103af57600085556103f5565b82601f106103c857805160ff19168380011785556103f5565b828001600101855582156103f5579182015b828111156103f55782518255916020019190600101906103da565b50610401929150610405565b5090565b5b808211156104015760008155600101610406565b60006020828403121561042b578081fd5b5035919050565b60008060408385031215610444578081fd5b8235915060208084013567ffffffffffffffff80821115610463578384fd5b818601915086601f830112610476578384fd5b8135818111156104885761048861064c565b604051601f8201601f19168101850183811182821017156104ab576104ab61064c565b60405281815283820185018910156104c1578586fd5b81858501868301378585838301015280955050505050509250929050565b600080604083850312156104f1578182fd5b50508035926020909101359150565b60008151808452815b8181101561052557602081850181015186830182015201610509565b818111156105365782602083870101525b50601f01601f19169290920160200192915050565b60208082528251828201819052600091906040908185019080840286018301878501865b838110156105ce57603f19898403018552815160808151855288820151818a87015261059d82870182610500565b838a01516001600160a01b0316878b015260609384015193909601929092525050938601939086019060010161056f565b509098975050505050505050565b6000858252608060208301526105f56080830186610500565b6001600160a01b03949094166040830152506060015292915050565b60028104600182168061062557607f821691505b6020821081141561064657634e487b7160e01b600052602260045260246000fd5b50919050565b634e487b7160e01b600052604160045260246000fdfea2646970667358221220c799a820436636f6a8e4f5119018db1d61285e2b185f35a8eae780e60e90bb8164736f6c63430008000033",
  "immutableReferences": {},
  "source": "// SPDX-License-Identifier: UNLICENSED\npragma solidity ^0.8.0;\n\nimport \"./SupplyChainTypes.sol\";\n\ncontract SupplyChainContract {\n    using SupplyChainTypes for SupplyChainTypes.SupplyChainEvent[]; // Important for array operations\n\n    mapping(uint256 => SupplyChainTypes.SupplyChainEvent[]) public supplyChainHistory;\n\n    event SupplyChainEventAdded(uint256 batchId, string eventType, address actor, uint256 timestamp);\n\n    function addSupplyChainEvent(uint256 _batchId, string memory _eventType) public {\n        SupplyChainTypes.SupplyChainEvent memory newEvent = SupplyChainTypes.SupplyChainEvent({\n            batchId: _batchId,\n            eventType: _eventType,\n            actor: msg.sender,\n            timestamp: block.timestamp\n        });\n\n        supplyChainHistory[_batchId].push(newEvent);\n        emit SupplyChainEventAdded(_batchId, _eventType, msg.sender, block.timestamp);\n    }\n\n    function getSupplyChainHistory(uint256 _batchId) public view returns (SupplyChainTypes.SupplyChainEvent[] memory) {\n        return supplyChainHistory[_batchId];\n    }\n}",
  "sourcePath": "/Users/kushagraagarwal/Documents/Study_Material/last/contracts/SupplyChainContract.sol",
  "compiler": {
    "name": "solc",
    "version": "0.8.0+commit.c7dfd78e.Emscripten.clang"
  },
  "schemaVersion": "3.4.16",
  "updatedAt": "2025-04-16T07:00:19.076Z",
  "networkType": "ethereum",
  "devdoc": {
    "kind": "dev",
    "methods": {},
    "version": 1
  },
  "userdoc": {
    "kind": "user",
    "methods": {},
    "version": 1
  }
}