{
  "contractName": "VerificationContract",
  "abi": [
    {
      "inputs": [
        {
          "internalType": "address",
          "name": "_drugContractAddress",
          "type": "address"
        },
        {
          "internalType": "address",
          "name": "_supplyChainContractAddress",
          "type": "address"
        }
      ],
      "stateMutability": "nonpayable",
      "type": "constructor"
    },
    {
      "inputs": [],
      "name": "drugContract",
      "outputs": [
        {
          "internalType": "contract DrugContract",
          "name": "",
          "type": "address"
        }
      ],
      "stateMutability": "view",
      "type": "function",
      "constant": true
    },
    {
      "inputs": [],
      "name": "supplyChainContract",
      "outputs": [
        {
          "internalType": "contract SupplyChainContract",
          "name": "",
          "type": "address"
        }
      ],
      "stateMutability": "view",
      "type": "function",
      "constant": true
    },
    {
      "inputs": [
        {
          "internalType": "uint256",
          "name": "_batchId",
          "type": "uint256"
        }
      ],
      "name": "getDrugInfo",
      "outputs": [
        {
          "internalType": "uint256",
          "name": "",
          "type": "uint256"
        },
        {
          "internalType": "string",
          "name": "",
          "type": "string"
        },
        {
          "internalType": "string",
          "name": "",
          "type": "string"
        },
        {
          "internalType": "uint256",
          "name": "",
          "type": "uint256"
        },
        {
          "internalType": "string",
          "name": "",
          "type": "string"
        },
        {
          "internalType": "address",
          "name": "",
          "type": "address"
        }
      ],
      "stateMutability": "view",
      "type": "function",
      "constant": true
    },
    {
      "inputs": [
        {
          "internalType": "uint256",
          "name": "_batchId",
          "type": "uint256"
        }
      ],
      "name": "getSupplyChain",
      "outputs": [
        {
          "components": [
            {
              "internalType": "uint256",
              "name": "batchId",
              "type": "uint256"
            },
            {
              "internalType": "string",
              "name": "eventType",
              "type": "string"
            },
            {
              "internalType": "address",
              "name": "actor",
              "type": "address"
            },
            {
              "internalType": "uint256",
              "name": "timestamp",
              "type": "uint256"
            }
          ],
          "internalType": "struct SupplyChainTypes.SupplyChainEvent[]",
          "name": "",
          "type": "tuple[]"
        }
      ],
      "stateMutability": "view",
      "type": "function",
      "constant": true
    },
    {
      "inputs": [
        {
          "internalType": "uint256",
          "name": "_batchId",
          "type": "uint256"
        }
      ],
      "name": "verifyDrug",
      "outputs": [
        {
          "components": [
            {
              "internalType": "uint256",
              "name": "batchId",
              "type": "uint256"
            },
            {
              "internalType": "string",
              "name": "name",
              "type": "string"
            },
            {
              "internalType": "string",
              "name": "manufacturer",
              "type": "string"
            },
            {
              "internalType": "uint256",
              "name": "creationDate",
              "type": "uint256"
            },
            {
              "internalType": "string",
              "name": "expiryDate",
              "type": "string"
            },
            {
              "internalType": "address",
              "name": "owner",
              "type": "address"
            },
            {
              "components": [
                {
                  "internalType": "uint256",
                  "name": "batchId",
                  "type": "uint256"
                },
                {
                  "internalType": "string",
                  "name": "eventType",
                  "type": "string"
                },
                {
                  "internalType": "address",
                  "name": "actor",
                  "type": "address"
                },
                {
                  "internalType": "uint256",
                  "name": "timestamp",
                  "type": "uint256"
                }
              ],
              "internalType": "struct SupplyChainTypes.SupplyChainEvent[]",
              "name": "history",
              "type": "tuple[]"
            }
          ],
          "internalType": "struct VerificationContract.DrugVerificationResult",
          "name": "",
          "type": "tuple"
        }
      ],
      "stateMutability": "view",
      "type": "function",
      "constant": true
    }
  ],
  "bytecode": "0x608060405234801561001057600080fd5b50604051610a05380380610a0583398101604081905261002f9161007c565b600080546001600160a01b039384166001600160a01b031991821617909155600180549290931691161790556100ae565b80516001600160a01b038116811461007757600080fd5b919050565b6000806040838503121561008e578182fd5b61009783610060565b91506100a560208401610060565b90509250929050565b610948806100bd6000396000f3fe608060405234801561001057600080fd5b50600436106100575760003560e01c80630b210a721461005c57806320fe1b361461008a5780632884b50a146100aa578063412b46e4146100bf578063a269cc7a146100df575b600080fd5b61006f61006a366004610577565b6100e7565b60405161008196959493929190610841565b60405180910390f35b61009d610098366004610577565b610189565b60405161008191906106eb565b6100b2610216565b604051610081919061077c565b6100d26100cd366004610577565b610225565b6040516100819190610790565b6100b2610394565b6000805460405163b8840d3d60e01b815260609182918491839183916001600160a01b03169063b8840d3d90610121908a90600401610838565b60006040518083038186803b15801561013957600080fd5b505afa15801561014d573d6000803e3d6000fd5b505050506040513d6000823e601f3d908101601f19168201604052610175919081019061058f565b949c939b5091995097509550909350915050565b60015460405163de0a5e9960e01b81526060916001600160a01b03169063de0a5e99906101ba908590600401610838565b60006040518083038186803b1580156101d257600080fd5b505afa1580156101e6573d6000803e3d6000fd5b505050506040513d6000823e601f3d908101601f1916820160405261020e919081019061046a565b90505b919050565b6000546001600160a01b031681565b61022d6103a3565b6000805460405163b8840d3d60e01b8152829182918291829182916001600160a01b03169063b8840d3d90610266908b90600401610838565b60006040518083038186803b15801561027e57600080fd5b505afa158015610292573d6000803e3d6000fd5b505050506040513d6000823e601f3d908101601f191682016040526102ba919081019061058f565b60015460405163de0a5e9960e01b8152969c50949a50929850909650945092506000916001600160a01b039091169063de0a5e99906102fd908c90600401610838565b60006040518083038186803b15801561031557600080fd5b505afa158015610329573d6000803e3d6000fd5b505050506040513d6000823e601f3d908101601f19168201604052610351919081019061046a565b6040805160e081018252988952602089019790975295870194909452606086019290925260808501526001600160a01b031660a08401525060c082015292915050565b6001546001600160a01b031681565b6040518060e00160405280600081526020016060815260200160608152602001600081526020016060815260200160006001600160a01b03168152602001606081525090565b80516001600160a01b038116811461021157600080fd5b600082601f830112610410578081fd5b815167ffffffffffffffff81111561042a5761042a6108fc565b61043d601f8201601f19166020016108a2565b818152846020838601011115610451578283fd5b6104628260208301602087016108cc565b949350505050565b6000602080838503121561047c578182fd5b825167ffffffffffffffff80821115610493578384fd5b818501915085601f8301126104a6578384fd5b8151818111156104b8576104b86108fc565b6104c584858302016108a2565b81815284810190848601875b8481101561056857815187016080818d03601f190112156104f057898afd5b60408051608081018181108a8211171561050c5761050c6108fc565b8252828b015181528282015189811115610524578c8dfd5b6105328f8d83870101610400565b8c83015250610543606084016103e9565b91810191909152608091909101516060820152845292870192908701906001016104d1565b50909998505050505050505050565b600060208284031215610588578081fd5b5035919050565b60008060008060008060c087890312156105a7578182fd5b86519550602087015167ffffffffffffffff808211156105c5578384fd5b6105d18a838b01610400565b965060408901519150808211156105e6578384fd5b6105f28a838b01610400565b955060608901519450608089015191508082111561060e578384fd5b5061061b89828a01610400565b92505061062a60a088016103e9565b90509295509295509295565b60008282518085526020808601955080818302840101818601855b848110156106b257601f19868403018952815160808151855285820151818787015261067f828701826106bf565b6040848101516001600160a01b031690880152606093840151939096019290925250509783019790830190600101610651565b5090979650505050505050565b600081518084526106d78160208601602086016108cc565b601f01601f19169290920160200192915050565b60208082528251828201819052600091906040908185019080840286018301878501865b8381101561076e57603f19898403018552815160808151855288820151818a87015261073d828701826106bf565b838a01516001600160a01b0316878b015260609384015193909601929092525050938601939086019060010161070f565b509098975050505050505050565b6001600160a01b0391909116815260200190565b60006020825282516020830152602083015160e060408401526107b76101008401826106bf565b90506040840151601f19808584030160608601526107d583836106bf565b92506060860151608086015260808601519150808584030160a08601526107fc83836106bf565b60a08701516001600160a01b031660c08781019190915287015186820390920160e08701529250905061082f8282610636565b95945050505050565b90815260200190565b600087825260c0602083015261085a60c08301886106bf565b828103604084015261086c81886106bf565b9050856060840152828103608084015261088681866106bf565b91505060018060a01b03831660a0830152979650505050505050565b60405181810167ffffffffffffffff811182821017156108c4576108c46108fc565b604052919050565b60005b838110156108e75781810151838201526020016108cf565b838111156108f6576000848401525b50505050565b634e487b7160e01b600052604160045260246000fdfea264697066735822122053157a0eef62b42a2e27a21d2b0eca2281f77098f0f1a3d202a3e43e9df5101064736f6c63430008000033",
  "immutableReferences": {},
  "source": "// SPDX-License-Identifier: UNLICENSED\npragma solidity ^0.8.0;\n\nimport \"./DrugContract.sol\";\nimport \"./SupplyChainContract.sol\";\nimport \"./SupplyChainTypes.sol\";\n\ncontract VerificationContract {\n    DrugContract public drugContract;\n    SupplyChainContract public supplyChainContract;\n\n    struct DrugVerificationResult {\n        uint256 batchId;\n        string name;\n        string manufacturer;\n        uint256 creationDate;\n        string expiryDate;\n        address owner;\n        SupplyChainTypes.SupplyChainEvent[] history;\n    }\n\n    constructor(address _drugContractAddress, address _supplyChainContractAddress) {\n        drugContract = DrugContract(_drugContractAddress);\n        supplyChainContract = SupplyChainContract(_supplyChainContractAddress);\n    }\n\n    function getDrugInfo(uint256 _batchId) public view returns (uint256, string memory, string memory, uint256, string memory, address) {\n        return drugContract.getDrug(_batchId);\n    }\n\n    function getSupplyChain(uint256 _batchId) public view returns (SupplyChainTypes.SupplyChainEvent[] memory) {\n        return supplyChainContract.getSupplyChainHistory(_batchId);\n    }\n\n    function verifyDrug(uint256 _batchId) public view returns (DrugVerificationResult memory) {\n        (uint256 batchId, string memory name, string memory manufacturer, uint256 creationDate, string memory expiryDate, address owner) = drugContract.getDrug(_batchId);\n        SupplyChainTypes.SupplyChainEvent[] memory history = supplyChainContract.getSupplyChainHistory(_batchId);\n\n        return DrugVerificationResult(batchId, name, manufacturer, creationDate, expiryDate, owner, history);\n    }\n}",
  "sourcePath": "/Users/kushagraagarwal/Documents/Study_Material/last/contracts/VerificationContract.sol",
  "compiler": {
    "name": "solc",
    "version": "0.8.0+commit.c7dfd78e.Emscripten.clang"
  },
  "schemaVersion": "3.4.16",
  "updatedAt": "2025-04-16T07:00:19.078Z",
  "networkType": "ethereum",
  "devdoc": {
    "kind": "dev",
    "methods": {},
    "version": 1
  },
  "userdoc": {
    "kind": "user",
    "methods": {},
    "version": 1
  }
}